{
  "_format": "hh-sol-artifact-1",
  "contractName": "PhisherRegistry",
  "sourceName": "contracts/PhisherRegistry.sol",
  "abi": [
    {
      "inputs": [
        {
          "internalType": "string",
          "name": "name",
          "type": "string"
        }
      ],
      "stateMutability": "nonpayable",
      "type": "constructor"
    },
    {
      "anonymous": false,
      "inputs": [
        {
          "indexed": false,
          "internalType": "address",
          "name": "principal",
          "type": "address"
        },
        {
          "indexed": true,
          "internalType": "address",
          "name": "agent",
          "type": "address"
        }
      ],
      "name": "DelegationTriggered",
      "type": "event"
    },
    {
      "anonymous": false,
      "inputs": [
        {
          "indexed": true,
          "internalType": "string",
          "name": "entity",
          "type": "string"
        },
        {
          "indexed": false,
          "internalType": "bool",
          "name": "isMember",
          "type": "bool"
        }
      ],
      "name": "MemberStatusUpdated",
      "type": "event"
    },
    {
      "anonymous": false,
      "inputs": [
        {
          "indexed": true,
          "internalType": "address",
          "name": "previousOwner",
          "type": "address"
        },
        {
          "indexed": true,
          "internalType": "address",
          "name": "newOwner",
          "type": "address"
        }
      ],
      "name": "OwnershipTransferred",
      "type": "event"
    },
    {
      "anonymous": false,
      "inputs": [
        {
          "indexed": true,
          "internalType": "string",
          "name": "entity",
          "type": "string"
        },
        {
          "indexed": false,
          "internalType": "bool",
          "name": "isPhisher",
          "type": "bool"
        }
      ],
      "name": "PhisherStatusUpdated",
      "type": "event"
    },
    {
      "inputs": [
        {
          "components": [
            {
              "internalType": "address",
              "name": "enforcer",
              "type": "address"
            },
            {
              "internalType": "bytes",
              "name": "terms",
              "type": "bytes"
            }
          ],
          "internalType": "struct Caveat[]",
          "name": "_input",
          "type": "tuple[]"
        }
      ],
      "name": "GET_CAVEAT_ARRAY_PACKETHASH",
      "outputs": [
        {
          "internalType": "bytes32",
          "name": "",
          "type": "bytes32"
        }
      ],
      "stateMutability": "pure",
      "type": "function"
    },
    {
      "inputs": [
        {
          "components": [
            {
              "internalType": "address",
              "name": "enforcer",
              "type": "address"
            },
            {
              "internalType": "bytes",
              "name": "terms",
              "type": "bytes"
            }
          ],
          "internalType": "struct Caveat",
          "name": "_input",
          "type": "tuple"
        }
      ],
      "name": "GET_CAVEAT_PACKETHASH",
      "outputs": [
        {
          "internalType": "bytes32",
          "name": "",
          "type": "bytes32"
        }
      ],
      "stateMutability": "pure",
      "type": "function"
    },
    {
      "inputs": [
        {
          "components": [
            {
              "internalType": "address",
              "name": "delegate",
              "type": "address"
            },
            {
              "internalType": "bytes32",
              "name": "authority",
              "type": "bytes32"
            },
            {
              "components": [
                {
                  "internalType": "address",
                  "name": "enforcer",
                  "type": "address"
                },
                {
                  "internalType": "bytes",
                  "name": "terms",
                  "type": "bytes"
                }
              ],
              "internalType": "struct Caveat[]",
              "name": "caveats",
              "type": "tuple[]"
            }
          ],
          "internalType": "struct Delegation",
          "name": "_input",
          "type": "tuple"
        }
      ],
      "name": "GET_DELEGATION_PACKETHASH",
      "outputs": [
        {
          "internalType": "bytes32",
          "name": "",
          "type": "bytes32"
        }
      ],
      "stateMutability": "pure",
      "type": "function"
    },
    {
      "inputs": [
        {
          "components": [
            {
              "internalType": "string",
              "name": "name",
              "type": "string"
            },
            {
              "internalType": "string",
              "name": "version",
              "type": "string"
            },
            {
              "internalType": "uint256",
              "name": "chainId",
              "type": "uint256"
            },
            {
              "internalType": "address",
              "name": "verifyingContract",
              "type": "address"
            }
          ],
          "internalType": "struct EIP712Domain",
          "name": "_input",
          "type": "tuple"
        }
      ],
      "name": "GET_EIP712DOMAIN_PACKETHASH",
      "outputs": [
        {
          "internalType": "bytes32",
          "name": "",
          "type": "bytes32"
        }
      ],
      "stateMutability": "pure",
      "type": "function"
    },
    {
      "inputs": [
        {
          "components": [
            {
              "components": [
                {
                  "components": [
                    {
                      "internalType": "address",
                      "name": "to",
                      "type": "address"
                    },
                    {
                      "internalType": "uint256",
                      "name": "gasLimit",
                      "type": "uint256"
                    },
                    {
                      "internalType": "bytes",
                      "name": "data",
                      "type": "bytes"
                    }
                  ],
                  "internalType": "struct Transaction",
                  "name": "transaction",
                  "type": "tuple"
                },
                {
                  "components": [
                    {
                      "components": [
                        {
                          "internalType": "address",
                          "name": "delegate",
                          "type": "address"
                        },
                        {
                          "internalType": "bytes32",
                          "name": "authority",
                          "type": "bytes32"
                        },
                        {
                          "components": [
                            {
                              "internalType": "address",
                              "name": "enforcer",
                              "type": "address"
                            },
                            {
                              "internalType": "bytes",
                              "name": "terms",
                              "type": "bytes"
                            }
                          ],
                          "internalType": "struct Caveat[]",
                          "name": "caveats",
                          "type": "tuple[]"
                        }
                      ],
                      "internalType": "struct Delegation",
                      "name": "delegation",
                      "type": "tuple"
                    },
                    {
                      "internalType": "bytes",
                      "name": "signature",
                      "type": "bytes"
                    }
                  ],
                  "internalType": "struct SignedDelegation[]",
                  "name": "authority",
                  "type": "tuple[]"
                }
              ],
              "internalType": "struct Invocation[]",
              "name": "batch",
              "type": "tuple[]"
            },
            {
              "components": [
                {
                  "internalType": "uint256",
                  "name": "nonce",
                  "type": "uint256"
                },
                {
                  "internalType": "uint256",
                  "name": "queue",
                  "type": "uint256"
                }
              ],
              "internalType": "struct ReplayProtection",
              "name": "replayProtection",
              "type": "tuple"
            }
          ],
          "internalType": "struct Invocations",
          "name": "_input",
          "type": "tuple"
        }
      ],
      "name": "GET_INVOCATIONS_PACKETHASH",
      "outputs": [
        {
          "internalType": "bytes32",
          "name": "",
          "type": "bytes32"
        }
      ],
      "stateMutability": "pure",
      "type": "function"
    },
    {
      "inputs": [
        {
          "components": [
            {
              "components": [
                {
                  "internalType": "address",
                  "name": "to",
                  "type": "address"
                },
                {
                  "internalType": "uint256",
                  "name": "gasLimit",
                  "type": "uint256"
                },
                {
                  "internalType": "bytes",
                  "name": "data",
                  "type": "bytes"
                }
              ],
              "internalType": "struct Transaction",
              "name": "transaction",
              "type": "tuple"
            },
            {
              "components": [
                {
                  "components": [
                    {
                      "internalType": "address",
                      "name": "delegate",
                      "type": "address"
                    },
                    {
                      "internalType": "bytes32",
                      "name": "authority",
                      "type": "bytes32"
                    },
                    {
                      "components": [
                        {
                          "internalType": "address",
                          "name": "enforcer",
                          "type": "address"
                        },
                        {
                          "internalType": "bytes",
                          "name": "terms",
                          "type": "bytes"
                        }
                      ],
                      "internalType": "struct Caveat[]",
                      "name": "caveats",
                      "type": "tuple[]"
                    }
                  ],
                  "internalType": "struct Delegation",
                  "name": "delegation",
                  "type": "tuple"
                },
                {
                  "internalType": "bytes",
                  "name": "signature",
                  "type": "bytes"
                }
              ],
              "internalType": "struct SignedDelegation[]",
              "name": "authority",
              "type": "tuple[]"
            }
          ],
          "internalType": "struct Invocation[]",
          "name": "_input",
          "type": "tuple[]"
        }
      ],
      "name": "GET_INVOCATION_ARRAY_PACKETHASH",
      "outputs": [
        {
          "internalType": "bytes32",
          "name": "",
          "type": "bytes32"
        }
      ],
      "stateMutability": "pure",
      "type": "function"
    },
    {
      "inputs": [
        {
          "components": [
            {
              "components": [
                {
                  "internalType": "address",
                  "name": "to",
                  "type": "address"
                },
                {
                  "internalType": "uint256",
                  "name": "gasLimit",
                  "type": "uint256"
                },
                {
                  "internalType": "bytes",
                  "name": "data",
                  "type": "bytes"
                }
              ],
              "internalType": "struct Transaction",
              "name": "transaction",
              "type": "tuple"
            },
            {
              "components": [
                {
                  "components": [
                    {
                      "internalType": "address",
                      "name": "delegate",
                      "type": "address"
                    },
                    {
                      "internalType": "bytes32",
                      "name": "authority",
                      "type": "bytes32"
                    },
                    {
                      "components": [
                        {
                          "internalType": "address",
                          "name": "enforcer",
                          "type": "address"
                        },
                        {
                          "internalType": "bytes",
                          "name": "terms",
                          "type": "bytes"
                        }
                      ],
                      "internalType": "struct Caveat[]",
                      "name": "caveats",
                      "type": "tuple[]"
                    }
                  ],
                  "internalType": "struct Delegation",
                  "name": "delegation",
                  "type": "tuple"
                },
                {
                  "internalType": "bytes",
                  "name": "signature",
                  "type": "bytes"
                }
              ],
              "internalType": "struct SignedDelegation[]",
              "name": "authority",
              "type": "tuple[]"
            }
          ],
          "internalType": "struct Invocation",
          "name": "_input",
          "type": "tuple"
        }
      ],
      "name": "GET_INVOCATION_PACKETHASH",
      "outputs": [
        {
          "internalType": "bytes32",
          "name": "",
          "type": "bytes32"
        }
      ],
      "stateMutability": "pure",
      "type": "function"
    },
    {
      "inputs": [
        {
          "components": [
            {
              "internalType": "uint256",
              "name": "nonce",
              "type": "uint256"
            },
            {
              "internalType": "uint256",
              "name": "queue",
              "type": "uint256"
            }
          ],
          "internalType": "struct ReplayProtection",
          "name": "_input",
          "type": "tuple"
        }
      ],
      "name": "GET_REPLAYPROTECTION_PACKETHASH",
      "outputs": [
        {
          "internalType": "bytes32",
          "name": "",
          "type": "bytes32"
        }
      ],
      "stateMutability": "pure",
      "type": "function"
    },
    {
      "inputs": [
        {
          "components": [
            {
              "components": [
                {
                  "internalType": "address",
                  "name": "delegate",
                  "type": "address"
                },
                {
                  "internalType": "bytes32",
                  "name": "authority",
                  "type": "bytes32"
                },
                {
                  "components": [
                    {
                      "internalType": "address",
                      "name": "enforcer",
                      "type": "address"
                    },
                    {
                      "internalType": "bytes",
                      "name": "terms",
                      "type": "bytes"
                    }
                  ],
                  "internalType": "struct Caveat[]",
                  "name": "caveats",
                  "type": "tuple[]"
                }
              ],
              "internalType": "struct Delegation",
              "name": "delegation",
              "type": "tuple"
            },
            {
              "internalType": "bytes",
              "name": "signature",
              "type": "bytes"
            }
          ],
          "internalType": "struct SignedDelegation[]",
          "name": "_input",
          "type": "tuple[]"
        }
      ],
      "name": "GET_SIGNEDDELEGATION_ARRAY_PACKETHASH",
      "outputs": [
        {
          "internalType": "bytes32",
          "name": "",
          "type": "bytes32"
        }
      ],
      "stateMutability": "pure",
      "type": "function"
    },
    {
      "inputs": [
        {
          "components": [
            {
              "components": [
                {
                  "internalType": "address",
                  "name": "delegate",
                  "type": "address"
                },
                {
                  "internalType": "bytes32",
                  "name": "authority",
                  "type": "bytes32"
                },
                {
                  "components": [
                    {
                      "internalType": "address",
                      "name": "enforcer",
                      "type": "address"
                    },
                    {
                      "internalType": "bytes",
                      "name": "terms",
                      "type": "bytes"
                    }
                  ],
                  "internalType": "struct Caveat[]",
                  "name": "caveats",
                  "type": "tuple[]"
                }
              ],
              "internalType": "struct Delegation",
              "name": "delegation",
              "type": "tuple"
            },
            {
              "internalType": "bytes",
              "name": "signature",
              "type": "bytes"
            }
          ],
          "internalType": "struct SignedDelegation",
          "name": "_input",
          "type": "tuple"
        }
      ],
      "name": "GET_SIGNEDDELEGATION_PACKETHASH",
      "outputs": [
        {
          "internalType": "bytes32",
          "name": "",
          "type": "bytes32"
        }
      ],
      "stateMutability": "pure",
      "type": "function"
    },
    {
      "inputs": [
        {
          "components": [
            {
              "components": [
                {
                  "components": [
                    {
                      "components": [
                        {
                          "internalType": "address",
                          "name": "to",
                          "type": "address"
                        },
                        {
                          "internalType": "uint256",
                          "name": "gasLimit",
                          "type": "uint256"
                        },
                        {
                          "internalType": "bytes",
                          "name": "data",
                          "type": "bytes"
                        }
                      ],
                      "internalType": "struct Transaction",
                      "name": "transaction",
                      "type": "tuple"
                    },
                    {
                      "components": [
                        {
                          "components": [
                            {
                              "internalType": "address",
                              "name": "delegate",
                              "type": "address"
                            },
                            {
                              "internalType": "bytes32",
                              "name": "authority",
                              "type": "bytes32"
                            },
                            {
                              "components": [
                                {
                                  "internalType": "address",
                                  "name": "enforcer",
                                  "type": "address"
                                },
                                {
                                  "internalType": "bytes",
                                  "name": "terms",
                                  "type": "bytes"
                                }
                              ],
                              "internalType": "struct Caveat[]",
                              "name": "caveats",
                              "type": "tuple[]"
                            }
                          ],
                          "internalType": "struct Delegation",
                          "name": "delegation",
                          "type": "tuple"
                        },
                        {
                          "internalType": "bytes",
                          "name": "signature",
                          "type": "bytes"
                        }
                      ],
                      "internalType": "struct SignedDelegation[]",
                      "name": "authority",
                      "type": "tuple[]"
                    }
                  ],
                  "internalType": "struct Invocation[]",
                  "name": "batch",
                  "type": "tuple[]"
                },
                {
                  "components": [
                    {
                      "internalType": "uint256",
                      "name": "nonce",
                      "type": "uint256"
                    },
                    {
                      "internalType": "uint256",
                      "name": "queue",
                      "type": "uint256"
                    }
                  ],
                  "internalType": "struct ReplayProtection",
                  "name": "replayProtection",
                  "type": "tuple"
                }
              ],
              "internalType": "struct Invocations",
              "name": "invocations",
              "type": "tuple"
            },
            {
              "internalType": "bytes",
              "name": "signature",
              "type": "bytes"
            }
          ],
          "internalType": "struct SignedInvocation",
          "name": "_input",
          "type": "tuple"
        }
      ],
      "name": "GET_SIGNEDINVOCATION_PACKETHASH",
      "outputs": [
        {
          "internalType": "bytes32",
          "name": "",
          "type": "bytes32"
        }
      ],
      "stateMutability": "pure",
      "type": "function"
    },
    {
      "inputs": [
        {
          "components": [
            {
              "internalType": "address",
              "name": "to",
              "type": "address"
            },
            {
              "internalType": "uint256",
              "name": "gasLimit",
              "type": "uint256"
            },
            {
              "internalType": "bytes",
              "name": "data",
              "type": "bytes"
            }
          ],
          "internalType": "struct Transaction",
          "name": "_input",
          "type": "tuple"
        }
      ],
      "name": "GET_TRANSACTION_PACKETHASH",
      "outputs": [
        {
          "internalType": "bytes32",
          "name": "",
          "type": "bytes32"
        }
      ],
      "stateMutability": "pure",
      "type": "function"
    },
    {
      "inputs": [
        {
          "internalType": "string",
          "name": "identifier",
          "type": "string"
        },
        {
          "internalType": "bool",
          "name": "isNominated",
          "type": "bool"
        }
      ],
      "name": "claimIfMember",
      "outputs": [],
      "stateMutability": "nonpayable",
      "type": "function"
    },
    {
      "inputs": [
        {
          "internalType": "string",
          "name": "identifier",
          "type": "string"
        },
        {
          "internalType": "bool",
          "name": "isAccused",
          "type": "bool"
        }
      ],
      "name": "claimIfPhisher",
      "outputs": [],
      "stateMutability": "nonpayable",
      "type": "function"
    },
    {
      "inputs": [
        {
          "components": [
            {
              "components": [
                {
                  "internalType": "address",
                  "name": "to",
                  "type": "address"
                },
                {
                  "internalType": "uint256",
                  "name": "gasLimit",
                  "type": "uint256"
                },
                {
                  "internalType": "bytes",
                  "name": "data",
                  "type": "bytes"
                }
              ],
              "internalType": "struct Transaction",
              "name": "transaction",
              "type": "tuple"
            },
            {
              "components": [
                {
                  "components": [
                    {
                      "internalType": "address",
                      "name": "delegate",
                      "type": "address"
                    },
                    {
                      "internalType": "bytes32",
                      "name": "authority",
                      "type": "bytes32"
                    },
                    {
                      "components": [
                        {
                          "internalType": "address",
                          "name": "enforcer",
                          "type": "address"
                        },
                        {
                          "internalType": "bytes",
                          "name": "terms",
                          "type": "bytes"
                        }
                      ],
                      "internalType": "struct Caveat[]",
                      "name": "caveats",
                      "type": "tuple[]"
                    }
                  ],
                  "internalType": "struct Delegation",
                  "name": "delegation",
                  "type": "tuple"
                },
                {
                  "internalType": "bytes",
                  "name": "signature",
                  "type": "bytes"
                }
              ],
              "internalType": "struct SignedDelegation[]",
              "name": "authority",
              "type": "tuple[]"
            }
          ],
          "internalType": "struct Invocation[]",
          "name": "batch",
          "type": "tuple[]"
        }
      ],
      "name": "contractInvoke",
      "outputs": [
        {
          "internalType": "bool",
          "name": "",
          "type": "bool"
        }
      ],
      "stateMutability": "nonpayable",
      "type": "function"
    },
    {
      "inputs": [],
      "name": "domainHash",
      "outputs": [
        {
          "internalType": "bytes32",
          "name": "",
          "type": "bytes32"
        }
      ],
      "stateMutability": "view",
      "type": "function"
    },
    {
      "inputs": [
        {
          "internalType": "bytes",
          "name": "terms",
          "type": "bytes"
        },
        {
          "components": [
            {
              "internalType": "address",
              "name": "to",
              "type": "address"
            },
            {
              "internalType": "uint256",
              "name": "gasLimit",
              "type": "uint256"
            },
            {
              "internalType": "bytes",
              "name": "data",
              "type": "bytes"
            }
          ],
          "internalType": "struct Transaction",
          "name": "transaction",
          "type": "tuple"
        },
        {
          "internalType": "bytes32",
          "name": "delegationHash",
          "type": "bytes32"
        }
      ],
      "name": "enforceCaveat",
      "outputs": [
        {
          "internalType": "bool",
          "name": "",
          "type": "bool"
        }
      ],
      "stateMutability": "nonpayable",
      "type": "function"
    },
    {
      "inputs": [
        {
          "components": [
            {
              "internalType": "address",
              "name": "delegate",
              "type": "address"
            },
            {
              "internalType": "bytes32",
              "name": "authority",
              "type": "bytes32"
            },
            {
              "components": [
                {
                  "internalType": "address",
                  "name": "enforcer",
                  "type": "address"
                },
                {
                  "internalType": "bytes",
                  "name": "terms",
                  "type": "bytes"
                }
              ],
              "internalType": "struct Caveat[]",
              "name": "caveats",
              "type": "tuple[]"
            }
          ],
          "internalType": "struct Delegation",
          "name": "delegation",
          "type": "tuple"
        }
      ],
      "name": "getDelegationTypedDataHash",
      "outputs": [
        {
          "internalType": "bytes32",
          "name": "",
          "type": "bytes32"
        }
      ],
      "stateMutability": "view",
      "type": "function"
    },
    {
      "inputs": [
        {
          "internalType": "string",
          "name": "contractName",
          "type": "string"
        },
        {
          "internalType": "string",
          "name": "version",
          "type": "string"
        },
        {
          "internalType": "uint256",
          "name": "chainId",
          "type": "uint256"
        },
        {
          "internalType": "address",
          "name": "verifyingContract",
          "type": "address"
        }
      ],
      "name": "getEIP712DomainHash",
      "outputs": [
        {
          "internalType": "bytes32",
          "name": "",
          "type": "bytes32"
        }
      ],
      "stateMutability": "pure",
      "type": "function"
    },
    {
      "inputs": [
        {
          "components": [
            {
              "components": [
                {
                  "components": [
                    {
                      "internalType": "address",
                      "name": "to",
                      "type": "address"
                    },
                    {
                      "internalType": "uint256",
                      "name": "gasLimit",
                      "type": "uint256"
                    },
                    {
                      "internalType": "bytes",
                      "name": "data",
                      "type": "bytes"
                    }
                  ],
                  "internalType": "struct Transaction",
                  "name": "transaction",
                  "type": "tuple"
                },
                {
                  "components": [
                    {
                      "components": [
                        {
                          "internalType": "address",
                          "name": "delegate",
                          "type": "address"
                        },
                        {
                          "internalType": "bytes32",
                          "name": "authority",
                          "type": "bytes32"
                        },
                        {
                          "components": [
                            {
                              "internalType": "address",
                              "name": "enforcer",
                              "type": "address"
                            },
                            {
                              "internalType": "bytes",
                              "name": "terms",
                              "type": "bytes"
                            }
                          ],
                          "internalType": "struct Caveat[]",
                          "name": "caveats",
                          "type": "tuple[]"
                        }
                      ],
                      "internalType": "struct Delegation",
                      "name": "delegation",
                      "type": "tuple"
                    },
                    {
                      "internalType": "bytes",
                      "name": "signature",
                      "type": "bytes"
                    }
                  ],
                  "internalType": "struct SignedDelegation[]",
                  "name": "authority",
                  "type": "tuple[]"
                }
              ],
              "internalType": "struct Invocation[]",
              "name": "batch",
              "type": "tuple[]"
            },
            {
              "components": [
                {
                  "internalType": "uint256",
                  "name": "nonce",
                  "type": "uint256"
                },
                {
                  "internalType": "uint256",
                  "name": "queue",
                  "type": "uint256"
                }
              ],
              "internalType": "struct ReplayProtection",
              "name": "replayProtection",
              "type": "tuple"
            }
          ],
          "internalType": "struct Invocations",
          "name": "invocations",
          "type": "tuple"
        }
      ],
      "name": "getInvocationsTypedDataHash",
      "outputs": [
        {
          "internalType": "bytes32",
          "name": "",
          "type": "bytes32"
        }
      ],
      "stateMutability": "view",
      "type": "function"
    },
    {
      "inputs": [
        {
          "components": [
            {
              "components": [
                {
                  "components": [
                    {
                      "components": [
                        {
                          "internalType": "address",
                          "name": "to",
                          "type": "address"
                        },
                        {
                          "internalType": "uint256",
                          "name": "gasLimit",
                          "type": "uint256"
                        },
                        {
                          "internalType": "bytes",
                          "name": "data",
                          "type": "bytes"
                        }
                      ],
                      "internalType": "struct Transaction",
                      "name": "transaction",
                      "type": "tuple"
                    },
                    {
                      "components": [
                        {
                          "components": [
                            {
                              "internalType": "address",
                              "name": "delegate",
                              "type": "address"
                            },
                            {
                              "internalType": "bytes32",
                              "name": "authority",
                              "type": "bytes32"
                            },
                            {
                              "components": [
                                {
                                  "internalType": "address",
                                  "name": "enforcer",
                                  "type": "address"
                                },
                                {
                                  "internalType": "bytes",
                                  "name": "terms",
                                  "type": "bytes"
                                }
                              ],
                              "internalType": "struct Caveat[]",
                              "name": "caveats",
                              "type": "tuple[]"
                            }
                          ],
                          "internalType": "struct Delegation",
                          "name": "delegation",
                          "type": "tuple"
                        },
                        {
                          "internalType": "bytes",
                          "name": "signature",
                          "type": "bytes"
                        }
                      ],
                      "internalType": "struct SignedDelegation[]",
                      "name": "authority",
                      "type": "tuple[]"
                    }
                  ],
                  "internalType": "struct Invocation[]",
                  "name": "batch",
                  "type": "tuple[]"
                },
                {
                  "components": [
                    {
                      "internalType": "uint256",
                      "name": "nonce",
                      "type": "uint256"
                    },
                    {
                      "internalType": "uint256",
                      "name": "queue",
                      "type": "uint256"
                    }
                  ],
                  "internalType": "struct ReplayProtection",
                  "name": "replayProtection",
                  "type": "tuple"
                }
              ],
              "internalType": "struct Invocations",
              "name": "invocations",
              "type": "tuple"
            },
            {
              "internalType": "bytes",
              "name": "signature",
              "type": "bytes"
            }
          ],
          "internalType": "struct SignedInvocation[]",
          "name": "signedInvocations",
          "type": "tuple[]"
        }
      ],
      "name": "invoke",
      "outputs": [
        {
          "internalType": "bool",
          "name": "success",
          "type": "bool"
        }
      ],
      "stateMutability": "nonpayable",
      "type": "function"
    },
    {
      "inputs": [
        {
          "internalType": "address",
          "name": "",
          "type": "address"
        },
        {
          "internalType": "uint256",
          "name": "",
          "type": "uint256"
        }
      ],
      "name": "multiNonce",
      "outputs": [
        {
          "internalType": "uint256",
          "name": "",
          "type": "uint256"
        }
      ],
      "stateMutability": "view",
      "type": "function"
    },
    {
      "inputs": [],
      "name": "owner",
      "outputs": [
        {
          "internalType": "address",
          "name": "",
          "type": "address"
        }
      ],
      "stateMutability": "view",
      "type": "function"
    },
    {
      "inputs": [],
      "name": "renounceOwnership",
      "outputs": [],
      "stateMutability": "nonpayable",
      "type": "function"
    },
    {
      "inputs": [
        {
          "components": [
            {
              "components": [
                {
                  "internalType": "address",
                  "name": "delegate",
                  "type": "address"
                },
                {
                  "internalType": "bytes32",
                  "name": "authority",
                  "type": "bytes32"
                },
                {
                  "components": [
                    {
                      "internalType": "address",
                      "name": "enforcer",
                      "type": "address"
                    },
                    {
                      "internalType": "bytes",
                      "name": "terms",
                      "type": "bytes"
                    }
                  ],
                  "internalType": "struct Caveat[]",
                  "name": "caveats",
                  "type": "tuple[]"
                }
              ],
              "internalType": "struct Delegation",
              "name": "delegation",
              "type": "tuple"
            },
            {
              "internalType": "bytes",
              "name": "signature",
              "type": "bytes"
            }
          ],
          "internalType": "struct SignedDelegation",
          "name": "signedDelegation",
          "type": "tuple"
        }
      ],
      "name": "revokeDelegation",
      "outputs": [],
      "stateMutability": "nonpayable",
      "type": "function"
    },
    {
      "inputs": [
        {
          "internalType": "address",
          "name": "newOwner",
          "type": "address"
        }
      ],
      "name": "transferOwnership",
      "outputs": [],
      "stateMutability": "nonpayable",
      "type": "function"
    },
    {
      "inputs": [
        {
          "components": [
            {
              "components": [
                {
                  "internalType": "address",
                  "name": "delegate",
                  "type": "address"
                },
                {
                  "internalType": "bytes32",
                  "name": "authority",
                  "type": "bytes32"
                },
                {
                  "components": [
                    {
                      "internalType": "address",
                      "name": "enforcer",
                      "type": "address"
                    },
                    {
                      "internalType": "bytes",
                      "name": "terms",
                      "type": "bytes"
                    }
                  ],
                  "internalType": "struct Caveat[]",
                  "name": "caveats",
                  "type": "tuple[]"
                }
              ],
              "internalType": "struct Delegation",
              "name": "delegation",
              "type": "tuple"
            },
            {
              "internalType": "bytes",
              "name": "signature",
              "type": "bytes"
            }
          ],
          "internalType": "struct SignedDelegation",
          "name": "signedDelegation",
          "type": "tuple"
        }
      ],
      "name": "verifyDelegationSignature",
      "outputs": [
        {
          "internalType": "address",
          "name": "",
          "type": "address"
        }
      ],
      "stateMutability": "view",
      "type": "function"
    },
    {
      "inputs": [
        {
          "components": [
            {
              "components": [
                {
                  "components": [
                    {
                      "components": [
                        {
                          "internalType": "address",
                          "name": "to",
                          "type": "address"
                        },
                        {
                          "internalType": "uint256",
                          "name": "gasLimit",
                          "type": "uint256"
                        },
                        {
                          "internalType": "bytes",
                          "name": "data",
                          "type": "bytes"
                        }
                      ],
                      "internalType": "struct Transaction",
                      "name": "transaction",
                      "type": "tuple"
                    },
                    {
                      "components": [
                        {
                          "components": [
                            {
                              "internalType": "address",
                              "name": "delegate",
                              "type": "address"
                            },
                            {
                              "internalType": "bytes32",
                              "name": "authority",
                              "type": "bytes32"
                            },
                            {
                              "components": [
                                {
                                  "internalType": "address",
                                  "name": "enforcer",
                                  "type": "address"
                                },
                                {
                                  "internalType": "bytes",
                                  "name": "terms",
                                  "type": "bytes"
                                }
                              ],
                              "internalType": "struct Caveat[]",
                              "name": "caveats",
                              "type": "tuple[]"
                            }
                          ],
                          "internalType": "struct Delegation",
                          "name": "delegation",
                          "type": "tuple"
                        },
                        {
                          "internalType": "bytes",
                          "name": "signature",
                          "type": "bytes"
                        }
                      ],
                      "internalType": "struct SignedDelegation[]",
                      "name": "authority",
                      "type": "tuple[]"
                    }
                  ],
                  "internalType": "struct Invocation[]",
                  "name": "batch",
                  "type": "tuple[]"
                },
                {
                  "components": [
                    {
                      "internalType": "uint256",
                      "name": "nonce",
                      "type": "uint256"
                    },
                    {
                      "internalType": "uint256",
                      "name": "queue",
                      "type": "uint256"
                    }
                  ],
                  "internalType": "struct ReplayProtection",
                  "name": "replayProtection",
                  "type": "tuple"
                }
              ],
              "internalType": "struct Invocations",
              "name": "invocations",
              "type": "tuple"
            },
            {
              "internalType": "bytes",
              "name": "signature",
              "type": "bytes"
            }
          ],
          "internalType": "struct SignedInvocation",
          "name": "signedInvocation",
          "type": "tuple"
        }
      ],
      "name": "verifyInvocationSignature",
      "outputs": [
        {
          "internalType": "address",
          "name": "",
          "type": "address"
        }
      ],
      "stateMutability": "view",
      "type": "function"
    }
  ],
  "bytecode": "0x60a06040523480156200001157600080fd5b5060405162002718380380620027188339810160408190526200003491620001ab565b8080604051806040016040528060018152602001603160f81b8152506200006a62000064620000e760201b60201c565b62000145565b8151602080840191909120825182840120604080517f8b73c3c69bb8fe3d512ecc4cf759cc79239f7b179b0ffacaa9a75d522b39400f818601528082019390935260608301919091524660808301523060a0808401919091528151808403909101815260c090920190528051910120608052506200028792505050565b60003033036200013f57600080368080601f0160208091040260200160405190810160405280939291908181526020018383808284376000920191909152505050503601516001600160a01b03169150620001429050565b50335b90565b600080546001600160a01b038381166001600160a01b0319831681178455604051919092169283917f8be0079c531659141344cd1fd0a4f28419497f9722a3daafe3b4186f6b6457e09190a35050565b634e487b7160e01b600052604160045260246000fd5b60006020808385031215620001bf57600080fd5b82516001600160401b0380821115620001d757600080fd5b818501915085601f830112620001ec57600080fd5b81518181111562000201576200020162000195565b604051601f8201601f19908116603f011681019083821181831017156200022c576200022c62000195565b8160405282815288868487010111156200024557600080fd5b600093505b828410156200026957848401860151818501870152928501926200024a565b828411156200027b5760008684830101525b98975050505050505050565b608051612467620002b16000396000818161047b015281816108900152610bde01526124676000f3fe608060405234801561001057600080fd5b50600436106101c45760003560e01c80637234eefe116100f9578063a2e01f7511610097578063caced6c511610071578063caced6c5146103d9578063d327c1eb146103ec578063dfe86ac514610476578063f2fde38b1461049d57600080fd5b8063a2e01f75146103a0578063bb5af5bd146103b3578063c2133ccf146103c657600080fd5b80638a04499e116100d35780638a04499e1461033e5780638da5cb5b1461036957806397182ed61461037a57806398bc186a1461038d57600080fd5b80637234eefe14610305578063736f7ce7146103185780637b577b581461032b57600080fd5b80635c6d9f0c116101665780636b6dc9de116101405780636b6dc9de146102c45780636c2b1253146102d75780636f965803146102ea578063715018a6146102fd57600080fd5b80635c6d9f0c1461028b5780635cf1b24a1461029e57806360b6d768146102b157600080fd5b80632fad7efc116101a25780632fad7efc1461022d5780633a48182114610250578063463a3ce4146102635780635068de4c1461027857600080fd5b80630162f722146101c957806308aaf6b0146102075780632f52a2fd1461021a575b600080fd5b6101f46101d73660046115e0565b600160209081526000928352604080842090915290825290205481565b6040519081526020015b60405180910390f35b6101f4610215366004611783565b6104b0565b6101f46102283660046118cb565b610530565b61024061023b36600461194a565b61059b565b60405190151581526020016101fe565b6101f461025e366004611ba3565b610662565b610276610271366004611c26565b6106d9565b005b610240610286366004611c7c565b6107ae565b61024061029936600461194a565b610818565b6101f46102ac366004611cf1565b61082e565b6101f46102bf366004611dae565b61088b565b6102766102d2366004611c26565b6108db565b6101f46102e5366004611de2565b61099e565b6101f46102f8366004611e16565b6109fb565b610276610a4c565b6101f4610313366004611dae565b610aa1565b6101f4610326366004611e32565b610adf565b6101f4610339366004611e66565b610b47565b61035161034c366004611de2565b610baf565b6040516001600160a01b0390911681526020016101fe565b6000546001600160a01b0316610351565b6101f46103883660046118cb565b610bd9565b6101f461039b366004611e9a565b610c06565b6101f46103ae366004611f45565b610c52565b6101f46103c1366004611fb8565b610cbe565b6102766103d4366004611fec565b610cef565b6103516103e7366004611fb8565b610da9565b6101f46103fa36600461202d565b8351602094850120835193850193909320604080517f8b73c3c69bb8fe3d512ecc4cf759cc79239f7b179b0ffacaa9a75d522b39400f8188015280820195909552606085019190915260808401929092526001600160a01b031660a0808401919091528151808403909101815260c09092019052805191012090565b6101f47f000000000000000000000000000000000000000000000000000000000000000081565b6102766104ab3660046120aa565b610dd3565b6000807f80ad7e1b04ee6d994a125f4714ca0720908bd80ed16063ec8aee4b88e9253e2d8360000151846020015180519060200120604051602001610511939291909283526001600160a01b03919091166020830152604082015260600190565b60408051601f1981840301815291905280516020909101209392505050565b6000807f409f5114779a253e700d775d7845e6efc1e83685ac59868d2df3d4de51c7d6218360000151846020015161056b8660400151610b47565b6040805160208101959095526001600160a01b03909316928401929092526060830152608082015260a001610511565b6000805b8281101561065b57368484838181106105ba576105ba6120c5565b90506020028101906105cc91906120db565b905060006105dc6103e7836120fb565b9050610628818787868181106105f4576105f46120c5565b905060200281019061060691906120db565b6106109080612107565b6020018036038101906106239190611e16565b610e8d565b6106456106358380612107565b61063f908061211d565b83610f7c565b50505080806106539061217c565b91505061059f565b5092915050565b6000606060005b83518110156106ca5781610695858381518110610688576106886120c5565b602002602001015161082e565b6040516020016106a69291906121c1565b604051602081830303815290604052915080806106c29061217c565b915050610669565b50805160209091012092915050565b6106e1611392565b6001600160a01b03166106fc6000546001600160a01b031690565b6001600160a01b03161461072b5760405162461bcd60e51b8152600401610722906121e3565b60405180910390fd5b806004848460405161073e929190612218565b908152604051908190036020018120805492151560ff199093169290921790915561076c9084908490612218565b6040519081900381208215158252907f88e1b1a43f3edcb9afe941dfea296f5bc32fab715b5fc9aa101ec26d87d2e8a2906020015b60405180910390a2505050565b60008181526002602052604081205460ff161561080d5760405162461bcd60e51b815260206004820152601b60248201527f44656c65676174696f6e20686173206265656e207265766f6b656400000000006044820152606401610722565b506001949350505050565b6000610825838333610f7c565b90505b92915050565b6000807fd97dd99b404d177890f06a8f0fc8e5ed0333fb2ebb6684360709066e8984f59461085f8460000151610c52565b61086c8560200151610adf565b6040805160208101949094528301919091526060820152608001610511565b6000807f00000000000000000000000000000000000000000000000000000000000000006108b884610aa1565b60405161190160f01b602082015260228101929092526042820152606201610511565b6108e3611392565b6001600160a01b03166108fe6000546001600160a01b031690565b6001600160a01b0316146109245760405162461bcd60e51b8152600401610722906121e3565b8060038484604051610937929190612218565b908152604051908190036020018120805492151560ff19909316929092179091556109659084908490612218565b6040519081900381208215158252907f9d3712f4978fc20b17a1dfbcd563f9aded75d05b6019427a9eca23245220138b906020016107a1565b6000807f3c36a06e1d288b0f94f565588317a46ad11bc3c96992109f9a2365a2737259a76109cf8460000151610530565b602080860151805190820120604051610511949392019283526020830191909152604082015260600190565b6000807fe8d3d963b33868fb116316bc3fd55e8f49123f30e4418f71e140d54b7cd3b2b983600001518460200151604051602001610511939291909283526020830191909152604082015260600190565b610a54611392565b6001600160a01b0316610a6f6000546001600160a01b031690565b6001600160a01b031614610a955760405162461bcd60e51b8152600401610722906121e3565b610a9f60006113ee565b565b6000807f08c69a206c06f5334b35ceb1186181a713b21aff02cf66285f375084fbef2eb8610ad28460000151610662565b61086c85602001516109fb565b6000606060005b83518110156106ca5781610b12858381518110610b0557610b056120c5565b602002602001015161099e565b604051602001610b239291906121c1565b60405160208183030381529060405291508080610b3f9061217c565b915050610ae6565b6000606060005b83518110156106ca5781610b7a858381518110610b6d57610b6d6120c5565b60200260200101516104b0565b604051602001610b8b9291906121c1565b60405160208183030381529060405291508080610ba79061217c565b915050610b4e565b805160009081610bbe82610bd9565b90506000610bd082866020015161143e565b95945050505050565b6000807f00000000000000000000000000000000000000000000000000000000000000006108b884610530565b6000807f8b73c3c69bb8fe3d512ecc4cf759cc79239f7b179b0ffacaa9a75d522b39400f8360000151846020015185604001518660600151604051602001610511959493929190612254565b6000807fb16dfdb3b8fa033fe30ac976cd4a50ad256b6811c80d90fcd0b323eec190047d8360000151846020015185604001518051906020012060405160200161051194939291909384526001600160a01b039290921660208401526040830152606082015260800190565b6000807fc32b6dfe0f988d1f2b13248cddd88e320ff0ae86e3ccfe38bab77a80f4477d446109cf8460000151610aa1565b6000610cfd61034c836122a2565b90506000610d09611392565b9050806001600160a01b0316826001600160a01b031614610d7c5760405162461bcd60e51b815260206004820152602760248201527f4f6e6c7920746865207369676e65722063616e207265766f6b6520612064656c60448201526632b3b0ba34b7b760c91b6064820152608401610722565b6000610d8a6102e5856122a2565b6000908152600260205260409020805460ff1916600117905550505050565b600080610db9836000015161088b565b90506000610dcb82856020015161143e565b949350505050565b610ddb611392565b6001600160a01b0316610df66000546001600160a01b031690565b6001600160a01b031614610e1c5760405162461bcd60e51b8152600401610722906121e3565b6001600160a01b038116610e815760405162461bcd60e51b815260206004820152602660248201527f4f776e61626c653a206e6577206f776e657220697320746865207a65726f206160448201526564647265737360d01b6064820152608401610722565b610e8a816113ee565b50565b60208082015182516040805160608101909152603180825292939192610ebc9261240190830139858484611515565b6001600160a01b038416600090815260016020818152604080842086855290915290912054610eea916122ae565b8114610f525760405162461bcd60e51b815260206004820152603160248201527f4f6e652d61742d612d74696d65206f7264657220656e666f726365642e204e6f6044820152701b98d94c881a5cc81d1bdbc81cdb585b1b607a1b6064820152608401610722565b6001600160a01b039093166000908152600160209081526040808320938352929052209190915550565b6000805b8381101561138a576000858583818110610f9c57610f9c6120c5565b9050602002810190610fae91906120db565b610fb7906122c6565b9050600080826020015151600003610fcf5750849050805b6000805b84602001515181101561126f57600085602001518281518110610ff857610ff86120c5565b60200260200101519050600061100d82610baf565b90508260000361101e578095508594505b846001600160a01b0316816001600160a01b0316146110985760405162461bcd60e51b815260206004820152603060248201527f44656c65676174696f6e207369676e657220646f6573206e6f74206d6174636860448201526f103932b8bab4b932b21039b4b3b732b960811b6064820152608401610722565b8151602081015185146111135760405162461bcd60e51b815260206004820152603760248201527f44656c65676174696f6e20617574686f7269747920646f6573206e6f74206d6160448201527f7463682070726576696f75732064656c65676174696f6e0000000000000000006064820152608401610722565b600061111e8461099e565b905060005b8260400151518161ffff16101561125257600083604001518261ffff1681518110611150576111506120c5565b60200260200101516000015190506000816001600160a01b0316635068de4c86604001518561ffff1681518110611189576111896120c5565b6020026020010151602001518e60000151876040518463ffffffff1660e01b81526004016111b9939291906122d2565b6020604051808303816000875af11580156111d8573d6000803e3d6000fd5b505050506040513d601f19601f820116820180604052508101906111fc919061232e565b90508061123d5760405162461bcd60e51b815260206004820152600f60248201526e10d85d99585d081c995a9958dd1959608a1b6044820152606401610722565b5050808061124a9061234b565b915050611123565b5090519550935082915061126790508161217c565b915050610fd3565b50835180516001600160a01b031630146112cb5760405162461bcd60e51b815260206004820181905260248201527f496e766f636174696f6e2074617267657420646f6573206e6f74206d617463686044820152606401610722565b6040516001600160a01b0385811682528916907f185d11175440fcb6458fbc1889b02953452539ed80ad1da781a5449500f6d9609060200160405180910390a261132381600001518260400151836020015187611564565b9650866113725760405162461bcd60e51b815260206004820152601a60248201527f44656c656761746f7220657865637574696f6e206661696c65640000000000006044820152606401610722565b505050505080806113829061217c565b915050610f80565b509392505050565b60003033036113e857600080368080601f0160208091040260200160405190810160405280939291908181526020018383808284376000920191909152505050503601516001600160a01b031691506113eb9050565b50335b90565b600080546001600160a01b038381166001600160a01b0319831681178455604051919092169283917f8be0079c531659141344cd1fd0a4f28419497f9722a3daafe3b4186f6b6457e09190a35050565b60008060008084516041146114595760009350505050610828565b50505060208201516040830151606084015160001a601b81101561148557611482601b8261236c565b90505b8060ff16601b1415801561149d57508060ff16601c14155b156114ae5760009350505050610828565b60408051600081526020810180835288905260ff831691810191909152606081018490526080810183905260019060a0016020604051602081039080840390855afa158015611501573d6000803e3d6000fd5b505050602060405103519350505050610828565b61155e8484848460405160240161152f9493929190612391565b60408051601f198184030181529190526020810180516001600160e01b031663daa394bd60e01b1790526115a3565b50505050565b600080848360405160200161157a9291906123c9565b604051602081830303815290604052905060008082516020840160008a89f19695505050505050565b80516a636f6e736f6c652e6c6f67602083016000808483855afa5050505050565b80356001600160a01b03811681146115db57600080fd5b919050565b600080604083850312156115f357600080fd5b6115fc836115c4565b946020939093013593505050565b634e487b7160e01b600052604160045260246000fd5b604080519081016001600160401b03811182821017156116425761164261160a565b60405290565b604051606081016001600160401b03811182821017156116425761164261160a565b604051608081016001600160401b03811182821017156116425761164261160a565b604051601f8201601f191681016001600160401b03811182821017156116b4576116b461160a565b604052919050565b600082601f8301126116cd57600080fd5b81356001600160401b038111156116e6576116e661160a565b6116f9601f8201601f191660200161168c565b81815284602083860101111561170e57600080fd5b816020850160208301376000918101602001919091529392505050565b60006040828403121561173d57600080fd5b611745611620565b9050611750826115c4565b815260208201356001600160401b0381111561176b57600080fd5b611777848285016116bc565b60208301525092915050565b60006020828403121561179557600080fd5b81356001600160401b038111156117ab57600080fd5b610dcb8482850161172b565b60006001600160401b038211156117d0576117d061160a565b5060051b60200190565b600082601f8301126117eb57600080fd5b813560206118006117fb836117b7565b61168c565b82815260059290921b8401810191818101908684111561181f57600080fd5b8286015b8481101561185e5780356001600160401b038111156118425760008081fd5b6118508986838b010161172b565b845250918301918301611823565b509695505050505050565b60006060828403121561187b57600080fd5b611883611648565b905061188e826115c4565b81526020820135602082015260408201356001600160401b038111156118b357600080fd5b6118bf848285016117da565b60408301525092915050565b6000602082840312156118dd57600080fd5b81356001600160401b038111156118f357600080fd5b610dcb84828501611869565b60008083601f84011261191157600080fd5b5081356001600160401b0381111561192857600080fd5b6020830191508360208260051b850101111561194357600080fd5b9250929050565b6000806020838503121561195d57600080fd5b82356001600160401b0381111561197357600080fd5b61197f858286016118ff565b90969095509350505050565b60006060828403121561199d57600080fd5b6119a5611648565b90506119b0826115c4565b81526020820135602082015260408201356001600160401b038111156119d557600080fd5b6118bf848285016116bc565b6000604082840312156119f357600080fd5b6119fb611620565b905081356001600160401b0380821115611a1457600080fd5b611a2085838601611869565b83526020840135915080821115611a3657600080fd5b50611777848285016116bc565b600082601f830112611a5457600080fd5b81356020611a646117fb836117b7565b82815260059290921b84018101918181019086841115611a8357600080fd5b8286015b8481101561185e5780356001600160401b03811115611aa65760008081fd5b611ab48986838b01016119e1565b845250918301918301611a87565b600060408284031215611ad457600080fd5b611adc611620565b905081356001600160401b0380821115611af557600080fd5b611b018583860161198b565b83526020840135915080821115611b1757600080fd5b5061177784828501611a43565b600082601f830112611b3557600080fd5b81356020611b456117fb836117b7565b82815260059290921b84018101918181019086841115611b6457600080fd5b8286015b8481101561185e5780356001600160401b03811115611b875760008081fd5b611b958986838b0101611ac2565b845250918301918301611b68565b600060208284031215611bb557600080fd5b81356001600160401b03811115611bcb57600080fd5b610dcb84828501611b24565b60008083601f840112611be957600080fd5b5081356001600160401b03811115611c0057600080fd5b60208301915083602082850101111561194357600080fd5b8015158114610e8a57600080fd5b600080600060408486031215611c3b57600080fd5b83356001600160401b03811115611c5157600080fd5b611c5d86828701611bd7565b9094509250506020840135611c7181611c18565b809150509250925092565b60008060008060608587031215611c9257600080fd5b84356001600160401b0380821115611ca957600080fd5b611cb588838901611bd7565b90965094506020870135915080821115611cce57600080fd5b50850160608188031215611ce157600080fd5b9396929550929360400135925050565b600060208284031215611d0357600080fd5b81356001600160401b03811115611d1957600080fd5b610dcb84828501611ac2565b600060408284031215611d3757600080fd5b611d3f611620565b9050813581526020820135602082015292915050565b600060608284031215611d6757600080fd5b611d6f611620565b905081356001600160401b03811115611d8757600080fd5b611d9384828501611b24565b825250611da38360208401611d25565b602082015292915050565b600060208284031215611dc057600080fd5b81356001600160401b03811115611dd657600080fd5b610dcb84828501611d55565b600060208284031215611df457600080fd5b81356001600160401b03811115611e0a57600080fd5b610dcb848285016119e1565b600060408284031215611e2857600080fd5b6108258383611d25565b600060208284031215611e4457600080fd5b81356001600160401b03811115611e5a57600080fd5b610dcb84828501611a43565b600060208284031215611e7857600080fd5b81356001600160401b03811115611e8e57600080fd5b610dcb848285016117da565b600060208284031215611eac57600080fd5b81356001600160401b0380821115611ec357600080fd5b9083019060808286031215611ed757600080fd5b611edf61166a565b823582811115611eee57600080fd5b611efa878286016116bc565b825250602083013582811115611f0f57600080fd5b611f1b878286016116bc565b60208301525060408301356040820152611f37606084016115c4565b606082015295945050505050565b600060208284031215611f5757600080fd5b81356001600160401b03811115611f6d57600080fd5b610dcb8482850161198b565b600060408284031215611f8b57600080fd5b611f93611620565b905081356001600160401b0380821115611fac57600080fd5b611a2085838601611d55565b600060208284031215611fca57600080fd5b81356001600160401b03811115611fe057600080fd5b610dcb84828501611f79565b600060208284031215611ffe57600080fd5b81356001600160401b0381111561201457600080fd5b82016040818503121561202657600080fd5b9392505050565b6000806000806080858703121561204357600080fd5b84356001600160401b038082111561205a57600080fd5b612066888389016116bc565b9550602087013591508082111561207c57600080fd5b50612089878288016116bc565b9350506040850135915061209f606086016115c4565b905092959194509250565b6000602082840312156120bc57600080fd5b610825826115c4565b634e487b7160e01b600052603260045260246000fd5b60008235603e198336030181126120f157600080fd5b9190910192915050565b60006108283683611f79565b60008235605e198336030181126120f157600080fd5b6000808335601e1984360301811261213457600080fd5b8301803591506001600160401b0382111561214e57600080fd5b6020019150600581901b360382131561194357600080fd5b634e487b7160e01b600052601160045260246000fd5b60006001820161218e5761218e612166565b5060010190565b60005b838110156121b0578181015183820152602001612198565b8381111561155e5750506000910152565b600083516121d3818460208801612195565b9190910191825250602001919050565b6020808252818101527f4f776e61626c653a2063616c6c6572206973206e6f7420746865206f776e6572604082015260600190565b8183823760009101908152919050565b60008151808452612240816020860160208601612195565b601f01601f19169290920160200192915050565b85815260a06020820152600061226d60a0830187612228565b828103604084015261227f8187612228565b606084019590955250506001600160a01b03919091166080909101529392505050565b600061082836836119e1565b600082198211156122c1576122c1612166565b500190565b60006108283683611ac2565b6060815260006122e56060830186612228565b828103602084015260018060a01b0385511681526020850151602082015260408501516060604083015261231c6060830182612228565b92505050826040830152949350505050565b60006020828403121561234057600080fd5b815161202681611c18565b600061ffff80831681810361236257612362612166565b6001019392505050565b600060ff821660ff84168060ff0382111561238957612389612166565b019392505050565b6080815260006123a46080830187612228565b6001600160a01b03959095166020830152506040810192909252606090910152919050565b600083516123db818460208801612195565b60609390931b6bffffffffffffffffffffffff1916919092019081526014019291505056fe53656e64657220257320697320747279696e6720746f207573652071756575652025732077697468206e6f6e6365202573a2646970667358221220ae19f50caefb4f5268ac72ffc974355e13b36ad16453697d919d3dbff95c8eb564736f6c634300080d0033",
  "linkReferences": {},
  "deployedLinkReferences": {}
}